:020000040800F2
:1000000058080020890100082724000899220008C8
:1000100025240008390500087529000800000000A3
:100020000000000000000000000000002B24000879
:100030008B05000800000000292400082D2400087A
:10004000A3010008A3010008A3010008A301000800
:10005000A3010008A30100088D050008A301000802
:10006000A3010008A3010008A30100083D05000842
:1000700049050008A3010008A3010008A301000826
:1000800055050008A3010008E9030008A3010008C2
:10009000A3010008A3010008A3010008A3010008B0
:1000A000A3010008A3010008A3010008A3010008A0
:1000B0009D240008A3010008A3010008A301000873
:1000C000A3010008A3010008A3010008A301000880
:1000D000A3010008A301000869290008A301000882
:1000E000A3010008A3010008A301000800F002F822
:1000F00000F03AF80AA090E8000C82448344AAF188
:100100000107DA4501D100F02FF8AFF2090EBAE885
:100110000F0013F0010F18BFFB1A43F0010318473B
:10012000A0340000C0340000103A24BF78C878C161
:10013000FAD8520724BF30C830C144BF04680C60ED
:10014000704700000023002400250026103A28BF35
:1001500078C1FBD8520728BF30C148BF0B60704739
:100160001FB51FBD10B510BD00F004F91146FFF713
:10017000F7FF02F06FFC00F022F903B4FFF7F2FF83
:1001800003BC00F029F900000948804709480047EE
:10019000FEE7FEE7FEE7FEE7FEE7FEE7FEE7FEE737
:1001A000FEE7FEE704480549054A064B7047000094
:1001B00099240008ED00000858020020580800208B
:1001C0005804002058040020B2F120030AD5C2F1DF
:1001D000200320FA02F001FA03F321FA02F140EAC7
:1001E0000300704721FA03F04FF000017047032A23
:1001F00040F2308010F0030C00F0158011F8013B44
:10020000BCF1020F624498BF11F801CB00F8013B2A
:1002100038BF11F8013BA2F1040298BF00F801CBEE
:1002200038BF00F8013B11F0030300F07180083A79
:10023000C0F0088051F8043B083A51F804CBA0E81C
:100240000810F5E7121D5CBF51F8043B40F8043B71
:10025000AFF30080D20724BF11F8013B11F801CBA6
:1002600048BF11F8012B24BF00F8013B00F801CB77
:1002700048BF00F8012B70474FF000020429C0F07E
:10028000128010F0030C00F01B80CCF1040CBCF1C8
:10029000020F18BF00F8012BA8BF20F8022BA1EB1A
:1002A0000C0100F00DB85FEAC17C24BF00F8012BFF
:1002B00000F8012B48BF00F8012B70474FF00002F7
:1002C00000B5134694469646203922BFA0E80C504C
:1002D000A0E80C50B1F12001BFF4F7AF090728BF27
:1002E000A0E80C5048BF0CC05DF804EB890028BFA3
:1002F00040F8042B08BF704748BF20F8022B11F0CC
:10030000804F18BF00F8012B704770477047704747
:1003100010B5203AC0F00B80B1E81850203AA0E8A0
:100320001850B1E81850A0E81850BFF4F5AF5FEAD4
:10033000027C24BFB1E81850A0E8185044BF18C987
:1003400018C0BDE810405FEA827C24BF51F8043B2E
:1003500040F8043B08BF7047D20728BF31F8023B82
:1003600048BF11F8012B28BF20F8023B48BF00F816
:10037000012B7047754600F02BF8AE460500694624
:10038000534620F00700854618B020B5FFF70AFF56
:10039000BDE820404FF000064FF000074FF0000886
:1003A0004FF0000B21F00701AC46ACE8C009ACE807
:1003B000C009ACE8C009ACE8C0098D46704710B56B
:1003C0000446AFF300802046BDE81040FFF7D5BEDD
:1003D00000487047F801002001491820ABBEFEE735
:1003E0002600020070470000014800F0E2B900005A
:1003F0002C00002070B5044600688168C943C90715
:1004000017D1816821F00101816000F021FF0546CC
:100410000AE000BF00F01CFF401B022804D920683E
:100420008068C043C00706D020688068C043C0070A
:10043000F0D0002070BDA06A40F01000A062E06A19
:1004400040F00100E062012070BD10B50146406A35
:10045000826A12F0500F05D0006A026BBDE81040AE
:1004600008461047816A41F4007181620168896819
:10047000C1F3424107290CD1017B51B9816A21F4B2
:1004800080718162816AC90403D4816A41F00101EB
:10049000816200F08BF910BD10B5406A816A41F0AD
:1004A00040018162C16A41F00401C16200F080F93B
:1004B00010BD10B5406A00F07AF910BDF8B50026FD
:1004C0000446009600688168C943C9072DD0816839
:1004D00041F001018160164816490068B0FBF1F057
:1004E00000E0401E00900028FBD100F0B1FE054660
:1004F00016E000BF00F0ACFE401B022810D92068B7
:100500008068C043C0070BD0A06A40F01000A06212
:10051000E06A40F00100E06284F824600120F8BD48
:1005200020688068C043C007E4D10020F8BD000007
:100530001800002040420F00FEE70000014800F0D4
:10054000A5BB000040010020014800F09FBB000057
:1005500084010020014800F099BB0000EC0000205D
:1005600030B590F840500124AC40C56B6C60046815
:1005700063604368102B036803D099600068C26011
:1005800030BD9A600068C16030BD7047012000F046
:1005900059BD72B6FEE7000006490020C861064852
:1005A000016941F004010161016941F0400101610B
:1005B00070470000D801002000200240064A0021B8
:1005C000D16106490A6942F002020A61486108697C
:1005D00040F0400008617047D80100200020024030
:1005E000044B0022DA61044A136943F001031361EA
:1005F00001807047D80100200020024014480022EA
:10060000C168CB06134904D5CA6942F00202CA6127
:100610001022C3685B0705D5CB6943F00103CB61AA
:1006200042F00402C369DB0707D0CB6943F004033F
:10063000CB61C16921F00101C161A2F5807101396D
:1006400001D0C2607047C16921F00101C1617047EA
:1006500000200240D801002070B5054600F0F8FDEA
:100660000646114C09E0681C07D025B100F0F0FDEA
:10067000801BA84201D9032070BDE068C007F2D1F9
:10068000E068800601D52020E060E068C00605D45F
:10069000E069C00702D1E068400703D5FFF7AEFF6D
:1006A000012070BD002070BD002002407047000096
:1006B000F8B50024009490F824202546012A12D091
:1006C000012280F824204A681F23072A0DD20668D9
:1006D000776B521E02EB820293409F430B6893405C
:1006E0001F43776319E00220F8BD06680D2A0AD27D
:1006F000376BD21F02EB820293409F430B689340FB
:100700001F43376309E0F76A0D3A02EB8202934018
:100710009F430B6893401F43F7620A6807230668EC
:100720000A2A0AD3F7680A3A02EB420293409F432F
:100730008B6893401F43F76008E0376902EB420281
:1007400093409F438B6893401F4337610A68102A88
:1007500001D0112A20D1124B02689A4217D1936816
:100760001B0219D4936843F40003936009681029AD
:1007700012D10C490C4A0968B1FBF2F101EB81017D
:10078000490000E0491E00910029FBD104E0816A84
:1007900041F020018162012480F824502046F8BDF8
:1007A000002401401800002040420F0070477047AD
:1007B000704770B50446006806684568A90625D5E7
:1007C000B10723D5A16AC90603D4A16A41F4007117
:1007D000A1628168C1F34241072910D1217B71B91F
:1007E000416821F020014160A06A20F48070A0627D
:1007F000A06AC00403D4A06A40F00100A0622046B1
:10080000FFF7D4FF21686FF01200086028062ED58C
:1008100070072CD5A06AC00603D4A06A40F400502B
:10082000A06220688168C1F30231072909D04168BC
:10083000490515D48168C1F34241072910D1217BB4
:1008400071B9416821F080014160A06A20F48050B4
:10085000A062A06AC00503D4A06A40F00100A062B3
:100860002046FFF723FF21686FF00C000860680640
:100870000CD5F0070AD0A06A40F48030A062204670
:1008800000F094F821686FF00100086070BD00006E
:100890002DE9F0414FF0000704003D467ED0A06AEC
:1008A000002628B9E66284F82460204600F080F82B
:1008B0002046FFF79FFDA16AC90600D420B1A06AB7
:1008C00040F01000A06269E0A16A21F4885141F073
:1008D0000201A1626268E169237B0A4347EA43019E
:1008E0000A43A1684FF48077B94209D0012907D0A3
:1008F0005FF0000194F814C0BCF1010F02D00AE0CF
:100900003946F7E7F3B1A36A43F02003A362E36A31
:1009100043F00103E3622368D3F804C02CF4694C6C
:100920004CEA010CC3F804C021688B68DFF870C082
:1009300003EA0C0313438B60A168B9420BD0012971
:1009400009D00CE0DFF85CC0A3690CEB43330B4328
:1009500043F40061DFE7218A0D05A5F580152168C4
:10096000CB6A23F470032B43CB62216889680E4B5A
:100970001940914208D1E662A16A21F0020141F0DA
:100980000101A162BDE8F081A06A20F0020040F000
:100990001000A062E06A40F00100E0620120F1E78F
:1009A000FDF7E1FF00E0FFFFFE0E1FFF70470000B4
:1009B000F0B585B000250646009501950295039592
:1009C00000681D49884235D11C49886940F400708F
:1009D0008861886900F400700490886940F0040020
:1009E00088618869202700F0040004900320CDE985
:1009F00000706946124800F031FB134C1148C4E9FD
:100A000000058020C4E90250400020618000E561BB
:100A1000C4E90507204600F0E3F908B1FFF7B9FD86
:100A20003462002211461220666200F07DFC122022
:100A300000F06CFC05B0F0BD002401400010024045
:100A40000008014008000240400100202DE9F04765
:100A5000894604463B4900683B4F0E1D904688423C
:100A600001D0B84207D1306810F4702F03D00125AF
:100A70002846BDE8F08794F8240001280CD0012016
:100A800084F824002046FFF719FD05004FF0000010
:100A900004D084F82400EBE70220EAE7A16A40F6DC
:100AA0000162914341F48071A1622168B94218D179
:100AB000326812F4702F14D0A16A41F48011A1623F
:100AC0003168490505D5A16A21F4005141F48051EE
:100AD000A162A16AC9040AD5E16A21F00601E162B6
:100AE00006E0A26A22F48012A2624968E9E7E062A5
:100AF00084F82400216A15488862216A1448C86273
:100B0000216A1448086321686FF0020008602068B9
:100B1000816841F480718160216843464A464C31C6
:100B2000206A00F08BF920688168C1F342410729EF
:100B3000816803D041F48011816099E741F4A001FC
:100B4000FAE7000000240140002801404B0400089F
:100B5000B30400089904000810B5044690F8240076
:100B6000012807D0012084F824002046FFF742FC2A
:100B700010B113E0022010BD21688A6822F480724F
:100B80008A60216A91F82120022A07D1084600F0E4
:100B90000EF8A16A30B141F04001A162002184F851
:100BA000241010BD21F4885141F00101F5E710B582
:100BB00090F821100022022905D00421816380F8D9
:100BC0002020012010BD01680B6823F00E030B608C
:100BD00001680B6823F001030B6090F84030C46B90
:100BE000012101FA03F3636080F8211080F82020CE
:100BF000104610BD10B590F821100024022903D032
:100C00000421816301243DE001680A6822F00E029C
:100C10000A6001680A6822F001020A601A4A016843
:100C2000914201D1012121E0174A1432914201D1B0
:100C300010211BE0144A2832914201D1891515E098
:100C4000114A3C32914201D189140FE00E4A5032D0
:100C5000914202D14FF4803108E00B4A6432914254
:100C600002D14FF4801101E04FF08071064A083A3A
:100C70005160012180F82110002180F82010416B83
:100C800001B18847204610BD080002402DE9F05F01
:100C9000C16B0C6801680B68D0F840C0042202FAEE
:100CA0000CF2494DDFF824A1494E4A4FDFF828B134
:100CB000DFF828E122422CD05A072AD50A6892068A
:100CC00003D40A6822F004020A600168A94201D133
:100CD000042219E0514501D1402215E0B14202D170
:100CE0004FF4806210E0B94202D14FF480420BE031
:100CF000594502D14FF4802206E0714502D14FF4EC
:100D0000800201E04FF080622F4908394A60C16AD1
:100D10003BE04FF0020808FA0CF818EA040F4FF015
:100D200000094FF0010235D05FEA837832D50B68B5
:100D30009B0605D40B6823F00A030B6080F8212082
:100D40000168A94201D1022219E0514501D12022B6
:100D500015E0B14202D14FF4007210E0B94202D165
:100D60004FF400520BE0594502D14FF4003206E037
:100D7000714502D14FF4001201E04FF000721249A8
:100D800008394A6080F82090816A00291AD0BDE8AD
:100D9000F05F0847082505FA0CF5254212D01B071D
:100DA00010D50B6823F00E030B6090F84010C36B56
:100DB00002FA01F15960826380F8212080F82090C6
:100DC000016BE2E7BDE8F09F080002401C00024012
:100DD0003000024044000240580002406C000240D3
:100DE00030B528B308C8134914221944B1FBF2F1F5
:100DF0008900C16310498163022141771A6843F673
:100E0000F0718A43D0E900142143D0E902452C4314
:100E100021430469214344692143846921431143E7
:100E2000196000214163012242770177084630BDF5
:100E3000012030BDF8FFFDBF0000024070B5044640
:100E400090F82000002501280CD0012084F8200013
:100E500094F821600020012E06D084F8200002259D
:100E6000284670BD022070BD022684F82160A06370
:100E70002068066826F0010606602046FFF770FB32
:100E8000E06A00282068016802D041F00E0106E007
:100E900021F0040101602068016841F00A0101604D
:100EA0002068016841F001010160D9E770B504468E
:100EB00000F0CEF90546601C02D0044800780444D6
:100EC00000F0C6F9401BA042FAD370BD0C00002010
:100ED0002DE9F047054626480F460126017E0129E7
:100EE0000FD00121814601762868DFF888804CF216
:100EF0005034022808D0A2462046FFF7ADFBA8B127
:100F000031E00220BDE8F0872046FFF7A5FB08BBD3
:100F10000120FFF741FB2046FFF79EFBD8F8101099
:100F2000064621F00401C8F810101CE04FF0FF3015
:100F30003860AC6811E02046FFF740FB5046FFF7F1
:100F40008BFBD8F81010060021F00201C8F8101031
:100F500001D03C6007E004F58064D5E9020100EBB4
:100F60008120A042E7D8002189F818103046C9E74F
:100F7000D8010020002002400148C06970470000ED
:100F8000D80100200348016941F08001016100207F
:100F900070470000002002402DE9F05F07461C4822
:100FA00088460024017E15461E46012909D00121EC
:100FB000814601764CF2503A5046FFF74DFB18B18E
:100FC00022E00220BDE8F09F012F02D0022F00D0C6
:100FD0000427D346DFF83CA0220128463146FFF71C
:100FE000F3F881B208EB4400FFF7FAFA5846FFF72E
:100FF00033FBDAF8102022F00102CAF8102018B9E9
:10100000641CE4B2BC42E7D3002289F81820D9E777
:10101000D801002000200240064900200A6912067B
:1010200007D5054A4A60054A4A600969090600D59C
:10103000012070470020024023016745AB89EFCDB6
:1010400070470000044910B50A68024202D00860E7
:10105000FFF7F6FF10BD0000140401402DE9F84F22
:10106000DFF8B8910024A9F1040B23460F2709F1FA
:10107000040AABF1040EC9E00125A5402A40AA42AA
:101080007DD1674ED1F804C0ACEB0608B44532D030
:1010900014DCBCF1030F3AD009DCBCF1000F2AD0FC
:1010A000BCF1010F1CD0BCF1020F31D11DE0BCF12D
:1010B000110F17D0BCF1120F2AD119E0B8F5881F13
:1010C00019D006DCB8F5803F15D0B8F5801F1FD1C8
:1010D00011E0B8F5001F0ED0B8F5041F18D10AE0D2
:1010E000CB6815E0CB681B1D12E0CB6808330FE01E
:1010F000CB680C330CE08B682BB1012B4FF008034D
:1011000003D0456104E0042302E0056100E0002310
:10111000FF2A01D8064601E000F104064FEA8405E3
:1011200001D9A5F12005D6F8008007FA05FC28EAC8
:101130000C0803FA05F548EA0508C6F800804D6872
:10114000ED0062D5374DAE6946F00106AE61AD697E
:1011500024F0030605F001050095334D06EB050C60
:10116000DCF80850A607360F07FA06F825EA080546
:10117000DFF8B880404503D14FF0000817E044E0A5
:10118000DFF8AC80404502D14FF001080FE0DFF8F6
:10119000A480404502D14FF0020808E0DFF89880B3
:1011A000404502D14FF0030801E04FF0040808FA6F
:1011B00006F848EA0508CCF808804D68D9F80060C0
:1011C000ED024D4601D5164300E096432E604D6872
:1011D000DAF80060AD02554601D5164300E09643AB
:1011E0002E604D68DBF80060AD035D4601D5164307
:1011F00000E096432E604D68DEF80060ED03754612
:1012000001D5164300E096432E60641C0D682A4603
:10121000E5407FF431AFBDE8F88F000008040140DD
:1012200000001110001002400000014000080140C1
:10123000000C01400010014000140140806808408B
:1012400000D0012070470AB1016170470904FBE733
:1012500001488068704700000C0000200248816847
:1012600002781144816070470C000020074810B5D7
:10127000016841F010010160032000F075F80F20B3
:1012800000F006F800F024F8002010BD0020024015
:1012900070B50D4D04464FF47A712878B1FBF0F02B
:1012A0000A490968B1FBF0F000F069FB48B9102C5D
:1012B00007D200222146501E00F036F800206C6054
:1012C00070BD012070BD00000C000020180000203F
:1012D0000C4808B5816941F001018161816901F023
:1012E00001010091C16941F08051C161C06900F004
:1012F000805000900448416821F0E06141F00071A5
:10130000416008BD0010024000000140002809DBD8
:1013100000F01F02012191404009800000F1E0200F
:10132000C0F8001170470000F0B40E4B1B680C466B
:10133000C3F30223C3F10705042D00D90425191DA9
:10134000072901D2002300E0DB1E012606FA05F181
:10135000491E214099409E40761E16403143F0BC04
:1013600001F009BB0CED00E0064900F00702086837
:101370004FF6FF03184040EA0220034A104308607A
:10138000704700000CED00E00000FA050648026816
:1013900022F004020260012903D040BF20BF20BF19
:1013A000704730BF7047000010ED00E02DE9F843B2
:1013B00005460078354CC00754D0E0690026C000CF
:1013C00008D4E06940F08050E061E069012600F057
:1013D000805000902E480168C90512D401688046EB
:1013E00041F480710160FFF733FF074605E000BF5D
:1013F000FFF72EFFC01B642823D8D8F80000C005D3
:10140000F6D5206A10F4407021D0A98801F440710B
:1014100081421CD0206A1F49012220F440700A60DA
:1014200000220A602062C00711D0FFF711FF0746B3
:1014300041F2883808E000BFFFF70AFFC11B4145B1
:1014400002D90320BDE8F883206A8007F4D5206A1A
:10145000696820F44070084320621EB1E06920F002
:101460008050E0612878800705D56068A96820F47D
:101470004040084360602878C00605D56068E96888
:1014800020F48000084360600020DBE70010024089
:1014900000700040400442422DE9F0470F4605002D
:1014A00061D0434E306800F00700B84209D230687E
:1014B00020F0070038433060306800F00700B84281
:1014C00051D128683B4C810712D5400703D560688D
:1014D00040F4E06060602878000703D5606840F45D
:1014E000605060606068A96820F0F00008436060A8
:1014F0002878C00728D06868012810D02168022801
:1015000010D0890700292EDA616821F00301014318
:101510006160FFF79DFE804641F288390DE0216849
:101520008903EFE78901EDE7FFF792FEA0EB0801E1
:10153000494502D90320BDE8F0876068696800F07A
:101540000C00B0EB810FEFD1306800F00700B8421B
:101550000BD9306820F0070038433060306800F065
:101560000700B84201D00120E5E72878400705D5FB
:101570006068E96820F4E06008436060287800074C
:1015800006D56068296920F4605040EAC1006060B7
:1015900000F038F86168084AC1F30311515CC84093
:1015A0000649086006480068FFF772FE0020C2E79F
:1015B0000020024000100240A6350008180000205C
:1015C000100000200448054900684968044AC1F336
:1015D0000221515CC84070471800002000100240F2
:1015E000B63500080448054900684968044AC1F353
:1015F000C221515CC8407047180000200010024012
:10160000B63500080E4A51680E4801F00C03042B51
:1016100011D0082B0FD10C48C1F38343C903C05C20
:101620000AD55168084AC1F34041921E515C054AEF
:101630005043B0FBF1F07047044948437047000045
:101640000010024000127A009635000800093D00A3
:101650002DE9F84F040070D02078C04DC00749D064
:101660006868C0F38100012807D06868C0F3810072
:10167000022809D16868C00306D52868800339D5D7
:1016800060680028E7D035E06068B0F5803F0BD097
:1016900010B1B0F5A02F11D0286820F48030286058
:1016A000286820F4802002E0286840F48030286018
:1016B000606890B1FFF7CCFD06460AE0286840F468
:1016C00080202860F0E700BFFFF7C2FD801B642880
:1016D00073D828688003F7D50CE0FFF7B9FD0646FC
:1016E00005E000BFFFF7B4FD801B6428F0D8286830
:1016F0008003F7D420789A4E80074FF001094FF00D
:10170000000839D5686810F00C0F07D06868C0F37E
:101710008100022809D16868C00306D428688007C0
:1017200014D52069012808D110E02069B0B1C6F8AD
:101730000090FFF78DFD074605E00AE1FFF788FD01
:10174000C01B0228C4D828688007F7D528686169BB
:1017500020F0F80040EAC10028600DE0C6F80080E3
:10176000FFF776FD074604E0FFF772FDC01B022875
:1017700023D828688007F7D4207800072CD579482B
:10178000A169D9B1C0F80090FFF762FD074604E0F7
:10179000FFF75EFDC01B02280FD8686A8007F7D5E7
:1017A00071484FF4FA510068B0FBF1F0009000BFAF
:1017B0000098411E0091FAD20EE080E0C0F800804F
:1017C000FFF746FD074604E0FFF742FDC01B022875
:1017D00075D8686A8007F7D42078400760D5E86933
:1017E0000027C00008D4E86940F08050E861E8694B
:1017F000012700F0805000905C480168C90513D4AF
:101800000168834641F480710160FFF721FD824643
:1018100006E000BFFFF71CFDA0EB0A0064284ED8CD
:10182000DBF80000C005F5D5E06801280AD008B152
:10183000052813D0286A20F001002862286A20F0C9
:10184000040002E0286A40F001002862E06841F2EA
:10185000883B98B1FFF7FCFC82460BE0286A40F019
:1018600004002862EEE700BFFFF7F2FCA0EB0A01DC
:1018700059455AD8286A8007F6D50CE0FFF7E8FCEE
:10188000824605E0FFF7E4FCA0EB0A0159454CD87D
:10189000286A8007F6D41FB1E86920F08050E8611B
:1018A000E06988B36968C1F38101022944D0022844
:1018B000C6F8608004D0FFF7CBFC044638E034E083
:1018C000FFF7C6FC074604E0FFF7C2FCC01B022876
:1018D0002BD828688001F7D4206AB0F5803F05D165
:1018E0006868A16820F4003008436860D4E9080102
:1018F0000843696821F4741108436860C6F8609071
:10190000FFF7A6FC044606E025E000BFFFF7A0FCB9
:10191000001B022809D828688001F7D51BE000BF0A
:10192000FFF796FC001B022802D90320BDE8F88FC0
:1019300028688001F4D40EE00128F7D06868226A94
:1019400000F48031914204D1616A00F47010884241
:1019500001D00120EAE70020E8E700000010024083
:101960000000424280044242180000200070004003
:101970004FF0E020016941F002010161704710B5AC
:10198000401EB0F1807F01D3012010BD4FF0E02454
:1019900060610F21601700F0EEFF0020A0610720BA
:1019A0002061002010BD4FF0E020016921F002010C
:1019B000016170477047704770B590F83C20012A6C
:1019C00026D0012480F83C40022280F83D200368A4
:1019D0005A689D6822F070060A6832435A600D4BBF
:1019E00002689A4208D0B2F1804F05D00A4B9A4261
:1019F00002D00A4B9A4204D1496825F0800319436A
:101A0000916080F83D40002180F83C10084670BD90
:101A1000022070BD002C014000040040000800407E
:101A200010B5040003D094F83D0010B107E0012088
:101A300010BD002084F83C00204600F01FF8022072
:101A400084F83D00211D206800F02EFD012084F85F
:101A5000460084F83E0084F83F0084F8400084F893
:101A6000410084F8420084F8430084F8440084F87C
:101A7000450084F83D00002010BD000038B5054643
:101A80000068B0F1804F29D11548C16941F00101CA
:101A9000C161C069144C00F0010000901148206041
:101AA000002080216060C4E90201490021618900B1
:101AB00061612021C4E906102046FFF791F908B1C1
:101AC000FEF767FD2C62002211461C206562FFF7BD
:101AD0002BFCBDE838401C20FFF718BC38BD0000C7
:101AE000001002401C0002408401002090F83D10CC
:101AF000012901D001207047022180F83D100168C2
:101B0000CA6842F00102CA6000680B49884208D0E6
:101B1000B0F1804F05D00949884202D00849884277
:101B200004D1816801F00701062903D0016841F062
:101B30000101016000207047002C014000040040BA
:101B4000000800400168CA6822F00102CA6001680A
:101B50000A6A41F211131A4207D10A6A9B101A420B
:101B600003D10A6822F001020A60012180F83D10C9
:101B70000020704770B5044690F83C00002501280D
:101B800017D0012684F83C60022084F83D002068CC
:101B9000826822F0770222F47F428260086850282F
:101BA00038D00DDC20284FD005DC90B3102811D19F
:101BB0004AE0022070BD302846D040280AD13BE0E0
:101BC00060282FD070280DD0B0F5805F03D0B0F51D
:101BD000005F12D0012584F83D60002084F83C00AD
:101BE000284670BDCB68D1E90121206800F092FC45
:101BF0002068816841F0770109E0CB68D1E90121D3
:101C0000206800F087FC2068816841F48041816091
:101C1000E1E719E0CA684968206800F08DFC5021AE
:101C2000206806E0CA684968206800F096FC6021D8
:101C3000206800F079FCCEE7CA684968206800F0A7
:101C40007BFC40212068F4E7226801461046F0E75B
:101C5000704770B50446006801694FF00005C9433C
:101C6000890715D4C168C943890711D4E91E0161E8
:101C700001202077206880698007204602D0FFF786
:101C8000E7FF04E000F098F8204600F096F825778A
:101C900020680169C943490717D4C168C943490786
:101CA00013D46FF00401016102202077206880695D
:101CB00010F4407F204602D0FFF7CAFF04E000F096
:101CC0007BF8204600F079F8257720680169C94340
:101CD000090716D4C168C943090712D46FF0080177
:101CE0000161042020772068C0698007204602D067
:101CF000FFF7AEFF04E000F05FF8204600F05DF86B
:101D0000257720680169C943C90617D4C168C9434A
:101D1000C90613D46FF010010161082020772068F4
:101D2000C06910F4407F204602D0FFF791FF04E025
:101D300000F042F8204600F040F82577206801695D
:101D4000C943C90708D1C168C943C90704D1891E5D
:101D50000161204600F032F820680169C943090694
:101D600009D4C168C943090605D46FF08001016137
:101D70002046FFF71FFE20680169C943490609D4C0
:101D8000C168C943490605D46FF04001016120468E
:101D900000F01CF820680169C94389060BD4C168AA
:101DA000C943890607D46FF0200101612046BDE8D0
:101DB0007040FFF700BE70BD7047704702488188D1
:101DC000491C81807047000000000020704738B532
:101DD000044690F84200202801D0022038BD61B1AD
:101DE0005AB10120206300206063204600F038FDD6
:101DF0000028F3D1216B012901D0012038BD2168D1
:101E00000A684968009121680C3151E8002F42F0BE
:101E1000100241E80023002BF5D138BD10B5006851
:101E2000114A90421ED111480068C26822F0200277
:101E3000C2600E48C9B2883801F0A6F80B490D22DD
:101E400088390A48FFF7C3FF08484830006801682E
:101E500021F00401016000F0C1FD002802D1044915
:101E60000120087010BD000000440040A4000020C4
:101E70000000002070470000F8B5016804460868BB
:101E8000CA684B6910F00F0F4FF0000559D003F0EE
:101E9000010602F49077374365D0C10705D0D1051C
:101EA00003D5616C41F001016164410705D5D90793
:101EB00003D0616C41F002016164810705D5D90747
:101EC00003D0616C41F004016164010707D502F0A1
:101ED0002001314303D0616C41F008016164616C01
:101EE00000293AD0800604D5900602D5204600F09D
:101EF000FAFB20684069616CC0F38010090700D4C8
:101F000060B3204600F0BAFB20684069400621D546
:101F10002068143050E8001F21F0400140E8001212
:101F2000002AF5D1E06BA8B16D494163E06BFEF783
:101F300061FE002811D0E06B416B01B0BDE8F040BC
:101F4000084783060FD593060DD52046BDE8F84017
:101F500000F0C9BB2046FFF78DFFF8BD2046FFF714
:101F600089FF6564F8BD266B2023012E7CD1C6064F
:101F70007AD5D60678D508684868009048694FF049
:101F80000206400640D5E16B086840680004000C7A
:101F9000E8D0A28D8242E5D9E085886920282DD03D
:101FA00020680C3050E8001F21F4807140E80012D6
:101FB000002AF5D12068143050E8001F21F00101FB
:101FC00040E80012002AF5D12068143050E8001FC4
:101FD00021F0400140E80012002AF5D184F8423097
:101FE000256320680C3050E8001F21F0100140E804
:101FF0000012002AF5D1E06BFEF7D9FD6663A08DD3
:10200000E18D401A81B22AE0A08DE18D401A81B2A3
:10201000E08D0028A6D00029A4D022680C3252E816
:10202000000F20F4907042E80007002FF5D12068DF
:10203000143050E8002F22F0010240E80027002F62
:10204000F5D184F84230256320680C3050E8002F29
:1020500022F0100240E80023002BF5D166632046F1
:10206000FFF7DCFEF8BDFFE705062BD5150629D5E1
:1020700094F841002128F5D1A068B0F5805F01D126
:102080002069B0B1206A411C216221680078486053
:10209000E08C401E0004000CE084E3D12068C1689D
:1020A00021F08001C1602068C16841F04001C16039
:1020B000D8E7206A0088C0F308004860206A801CC6
:1020C0002062E5E74006CDD55006CBD5CA6820464C
:1020D00022F04002CA6084F8413000F0DCF8C1E729
:1020E0007F25000870B5040004D094F84100002555
:1020F00010B106E0012070BD84F84050204600F089
:1021000023F8242084F841002068C16821F400519C
:10211000C160204600F048FB2068016921F490412D
:1021200001612068416921F02A0141612068C1688C
:1021300041F40051C1606564202084F8410084F8B6
:1021400042006563002070BD70B586B0002506466C
:1021500000950195029503950068224988423ED179
:102160002149C86940F40030C861C86900F40030F2
:102170000490886940F00400886188691B4C00F075
:10218000040004900420009002200190032003909A
:1021900069462046FEF762FF0820CDE90005694642
:1021A00020460295FEF75AFF124C1148C4E900057B
:1021B0008020C4E9025025616561A5612046E56182
:1021C000FEF70EFE08B1FEF7E4F9F46300221146B3
:1021D00026206662FFF7A8F82620FFF797F806B0DA
:1021E00070BD0000004400400010024000080140A3
:1021F0006C000240EC000020704770472DE9F84366
:10220000044690F841001F4616460D46202802D08D
:102210000220BDE8F8837DB176B100206064212002
:1022200084F84100FFF714F8A6848046E684A0688D
:10223000B0F5805F02D003E00120EAE7206910B129
:102240002E4600250EE000260CE08021204600F0FE
:102250004FFBA0B9AEB116F8010B21684860E08CC5
:10226000401EE084E08C43464FF0000200970028B7
:10227000EBD14FF04001204600F03AFB30B1032093
:10228000C7E735F8020BC0F30800E6E7202084F822
:1022900041000020BDE77047FEE700003EB5002189
:1022A0001148009101910F4A02910260012481605E
:1022B000047301754FF460220461C2614160FEF74E
:1022C000E7FA08B172B6FEE70520CDE90004072061
:1022D000029069460448FEF7EBF9002801D072B677
:1022E000FEE73EBD002401402C0000202DE9F04314
:1022F00085B000242E4800940194029403948169CF
:1023000041F004018161816901F004010491816956
:1023100041F0080181618069DFF8988000F00800D1
:1023200041F6D2760490002231464046FEF78BFFFC
:10233000DFF884904FF20727002239464846FEF71F
:1023400082FF01251D486946CDE9005040460295AF
:10235000FEF784FECDE900650226CDE90246694616
:102360004046FEF77BFE00970396CDE9015469468F
:102370004846FEF773FEE803CDE90004694640468F
:102380000294FEF76BFE4FF4FC70CDE90004694641
:1023900048460294FEF762FE002211460620FEF730
:1023A000C3FF0620FEF7B2FF05B0BDE8F0830000D2
:1023B0000010024000080140000C01400000211004
:1023C00010B586B00024164800940194029403943A
:1023D00004944FF080410594016041F63F71C0E9DB
:1023E00001146321C0E903148461FFF719FB08B1EC
:1023F00072B6FEE74FF48050009069460848FFF738
:10240000B9FB08B172B6FEE7049404A90448059428
:10241000FFF7D2FA002801D072B6FEE706B010BD71
:102420005C000020FEE7FEE770477047FEF716BF2E
:1024300030B593B028216846FDF740FF14210AA863
:10244000FDF73CFF002401200F9402250490009525
:102450001020119405901094129407946846FFF789
:10246000F7F808B172B6FEE70F20CDE90A040C9424
:102470000D9400210AA80E94FFF70EF808B172B669
:10248000FEE70FA80F951194FEF790FF002801D0EA
:1024900072B6FEE713B030BD704700000148FFF789
:1024A000D8BB00005C000020F0B50268164B174C4A
:1024B000174D4FF08047984205D0B84203D0A04254
:1024C00001D0A84203D122F070064A6832439842F4
:1024D00005D0B84203D0A04201D0A84203D122F4D3
:1024E0004074CA6822434C6922F080022243026091
:1024F0008A68C2620A688262984201D109690163EE
:1025000001214161F0BD0000002C014000040040A9
:102510000008004010B5846842EA032224F47F4496
:102520000A432243826010BD826822F070020A438F
:1025300042F007018160704710B5036A046A24F015
:1025400001040462846924F0F00444EA021423F0D4
:102550000A020A438461026210BD10B5036A046A6C
:1025600024F010040462846923F0A00324F470446E
:1025700044EA023243EA01118261016210BD10B5E2
:10258000406A0021C185C184FFF774FC10BD70B59D
:10259000446A2068406994F84110C0F3C0100025D7
:1025A000212904D118B1E584204600F08EF8206876
:1025B000406994F84210C0F38010222904D118B168
:1025C000E585204600F05AF8606C40F01000606429
:1025D0002046FFF74FFC70BD10B50146406A096800
:1025E00009684FF0000289062ED4C28501680C31BB
:1025F00051E8003F23F4807341E80034002CF5D10A
:102600000168143151E8003F23F0010341E8003430
:10261000002CF5D10168143151E8003F23F040034C
:1026200041E80034002CF5D1202180F84210016BE4
:10263000012909D101680C3151E8003F23F0100352
:1026400041E80034002CF5D14263016B012902D02E
:10265000FFF7D2FD10BD818DFFF7E0FB10BD10B577
:10266000406A01214163016B012902D0FFF7C5FDDA
:1026700010BD818D4908FFF7D1FB10BD01680C31F9
:1026800051E8002F22F4907241E80023002BF5D18D
:102690000168143151E8002F22F0010241E80023C3
:1026A000002BF5D1016B012909D101680C3151E8EA
:1026B000002F22F0100241E80023002BF5D1202149
:1026C00080F8421000210163704701680C3151E825
:1026D000002F22F0C00241E80023002BF5D1202179
:1026E00080F84110704708B590F84210222901D0B7
:1026F000022008BD82684FF480539A4201D10169DB
:1027000021B1816A9A421BD04AB10AE00268816A0B
:102710005268C2F308020A80816A891C08E00269D3
:1027200072B10268526802F07F020A70816A491C25
:102730008162C18D491E0904090CC18503D01BE0CB
:1027400002685268F1E70168CA6822F02002CA6094
:102750000168CA6822F48072CA6001684A6922F07E
:1027600001024A61202180F8421000214163026B7E
:10277000012A03D0FFF740FD002008BD0163016876
:102780000C3151E8002F22F0100241E80023002B09
:10279000F5D101680A68D20602D50A684968009135
:1027A000818DFFF73BFBE7E770B5044600680169E0
:1027B000E26821F44051114301612169A068084396
:1027C000616908432168CA6841F20C639A43024375
:1027D000CA6020684169A26921F4407111434161D6
:1027E0001E492068884202D1FEF7FCFE01E0FEF798
:1027F000E9FE00EBC00101EB00126068642180007B
:10280000B2FBF0F3B3FBF1F36FF018067343B2FBC6
:10281000F0F5B2FBF0F605EB8305322303EB05156B
:10282000B5FBF1F5B6FBF1F605F0F00505EB061585
:10283000B2FBF0F6B2FBF0F0B0FBF1F06FF0180273
:10284000504306EB800003EB0010B0FBF1F0216871
:1028500000F00F002844886070BD0000003801407F
:1028600038B58162044682850020134660642222C6
:1028700084F84220E56B1B4AAA62E56B1A4AEA62B9
:10288000E56B1A4A2A63E26B50630A462168E06BE3
:10289000091DFEF7D3FA206801684068009020699E
:1028A00048B120680C3050E8001F41F4807140E8C6
:1028B0000012002AF5D12068143050E8001F41F0C2
:1028C000010140E80012002AF5D12068143050E8D8
:1028D000001F41F0400140E80012002AF5D100201D
:1028E00038BD0000D92500085F2600088F250008A4
:1028F0002DE9F041984617460E460446069D27E00E
:10290000681C25D02DB1FEF7A3FCA0EB0800A8425F
:102910001ED920680C3050E8001F21F4D07140E827
:102920000012002AF5D12068143050E8001F21F071
:10293000010140E80012002AF5D1202084F841006E
:1029400084F84200002084F840000320BDE8F081B4
:102950002068006836EA000004D00020B842CFD0DA
:102960000020F3E70120F9E70148FFF785BA0000EE
:10297000A4000020FEE70907090E002804DB00F18F
:10298000E02080F80014704700F00F0000F1E02014
:1029900080F8141D7047000003490978C84001D031
:1029A0000020704701207047070000200549097882
:1029B000C1F10901884010F0FF0F01D000207047DD
:1029C000012070470700002003490978491EC840CC
:1029D000C00700D0012070470700002030B518481C
:1029E00001780D2903D0072901D0012030BD1549F8
:1029F0000023012209788C1E04E0855C521C2B44C4
:102A00009BB2D2B2A242F8DB014431F8021C49BAAF
:102A10008B4201D0022030BD0B4A8178127891425E
:102A200009D10A4AC1781278914204D10849007943
:102A30000978884201D0032030BD002030BD00005D
:102A4000C801002006000020080000200700002028
:102A50000900002008B5FEF709FCFFF7E9FCFFF7C5
:102A600045FC4848416941F001014161406900224B
:102A700000F00100009011460B20FEF755FC0B20E2
:102A8000FEF744FC002211460C20FEF74DFC0C2002
:102A9000FEF73CFC002211461020FEF745FC1020FA
:102AA000FEF734FCFFF7FAFB384837490025016090
:102AB0004FF41651C0E901150C21C560C0E904515D
:102AC0008561C561FFF70EFB08B172B6FEE7FFF73F
:102AD00077FC00F0F7F82D4E2D4C8C36207870B333
:102AE0002A488C3000F022FA707900F033F97078BF
:102AF0003C2813D03E281DD0432802D052281ED196
:102B000005E022488C3000F0C1FA032004E01F48A1
:102B10008C3000F005FB022060700FE0A58060782B
:102B2000022802D0032802D008E0657006E000F019
:102B3000A9F803E0A580607803280ED0257060789E
:102B400068B101280ED0022813D003280DD000F060
:102B500099F80A20FEF7AAF9C0E70120DCE700F0A7
:102B600051FBF6E700F072FBF3E77079FFF714FF13
:102B700008B1012100E0002104488C3000F002FB84
:102B8000E7E700000010024000440040A4000020DD
:102B900000000020014880887047000000000020ED
:102BA000F0B585B00E460746FEF736FA00200190D4
:102BB00000900F4D0121CDE90351694601A8FEF7B0
:102BC00087F940B900240CE03A5D00236119022026
:102BD000FEF7E2F918B1FEF7CFF905B0F0BD641CBD
:102BE000E4B2B442F0D3FEF7CDF90020F5E70000DF
:102BF00000FC01080249084490F8000C70470000EE
:102C000000F0010810B5C00140EA811002F0070190
:102C100040EAC100029C40EA830004F0030108433B
:102C200010BD8007000E01F0070140EAC10002F06C
:102C3000070108437047000070B5114D00244FF4A0
:102C400080512846FEF7FAFA00B101244FF40051F2
:102C50002846FEF7F3FA08B144F002044FF480412D
:102C60002846FEF7EBFA08B144F004044FF40041A3
:102C70002846FEF7E3FA08B144F00804204670BD88
:102C8000000C014010B5FEF78EFE0C48FDF764FF06
:102C90000A483030FEF756FF01210020FEF776FB90
:102CA000FEF766FE012206490448FDF7CFFE034801
:102CB000BDE810403030FEF719BF00002C000020A6
:102CC00002000020F8B5012240211E48FEF7BBFAA1
:102CD00001221D4E550229463046FEF7B4FA012264
:102CE0001A491B48FDF7B2FE19490D22103901F1AE
:102CF0008800FFF76CF81648C0300068016821F0C2
:102D00000401016012483030FEF7F0FE00F056F882
:102D1000002001230246009019461846FFF772FF73
:102D20000446012203210020FFF77BFF01462246D3
:102D3000C02000F037F929463046BDE8F8400022AF
:102D4000FEF781BA00080140000C0140020000209B
:102D50002C00002010B5184B044601211A7806E01B
:102D6000491CC9B28818082801D3002105E0501871
:102D7000401E24FA00F0C007F2D05018D87001218C
:102D800005E0491CC9B2914201D3002105E0501A67
:102D9000401E24FA00F0C007F3D0501A18712046E4
:102DA000FFF7FAFD002200B1DA702046FFF7FEFDC2
:102DB000002800D01A7110BD070000202DE9F04155
:102DC000214D4FF48058012241462846FEF73BFA38
:102DD0003220FEF76BF84FF400412846FEF72EFA3A
:102DE0001A4F044608213846FEF728FA04EB40043F
:102DF00010213846FEF722FA04EB8000144C401CE8
:102E0000202160703846FEF719FA06464021384600
:102E1000FEF714FA06EB400680213846FEF70EFA5C
:102E200006EB8000401C2070A9153846FEF706FA14
:102E300040B13520A07041462846BDE8F04100224F
:102E4000FEF701BA0620F5E700080140000C01403A
:102E5000070000202DE9F0410F46054614460D21DC
:102E60001046FDF709FA2C48677007220078A07019
:102E70002A483C2F00782071294832D029493E2F1A
:102E800032D00D22284E432F02D0522F2FD110E0E6
:102E900022700078E07068796071A879A071FFF7FE
:102EA000CBFE31788900091F8840E9680843E86053
:102EB0000CE022700878E070687960713178E87908
:102EC0000122491E8A401043A071E868000EE0719B
:102ED000E868000C2072A889000A6072287BA07242
:102EE00005E02270007801E022700878E070227816
:102EF00000210120931E04E0255C401C294489B276
:102F0000C0B28342F8DC0B0AA01E135414F8010966
:102F10000155BDE8F08100000800002009000020F4
:102F20000A0000200B0000200700002015490A7845
:102F300002704A7842708A788270CA78C2700A79C0
:102F400002714A78432A02D0522A13D104E04A7906
:102F500042718A79827103E04A7942718A79C27139
:102F6000B1F807204B7A52BA120442EA03228B7A54
:102F70001A43C2600A780349891E1144098849BA74
:102F800001817047C801002010B50C460A46014671
:102F90000248FDF72CF90248047010BDC80100205A
:102FA000060000207CB5064614460D46032000F0BE
:102FB00047F80E488DF80060062100788DF8010072
:102FC0000B4800788DF802000A488DF8035000780D
:102FD0008DF804008DF80540684600F05BF932205A
:102FE000FDF764FF002000F02BF87CBD08000020F6
:102FF00007000020090000202DE9FF4101220F4EAB
:1030000055021C46294630460A9FFEF71CF901214D
:10301000684600F03FF9012101A800F03BF90121C9
:1030200002A800F037F93946204600F033F90022B3
:1030300029463046FEF707F9BDE8FF81000C014044
:1030400010B5114C30B1012806D0022813D0032846
:103050000CD112E0002200E0012202212046FEF7FE
:10306000F2F8002210212046FEF7EDF8BDE81040EE
:103070003220FDF71BBF002200E001220221204682
:10308000FEF7E1F80122EDE7000801402DE9F041EB
:1030900086B0044601AA3E21FFF7DCFE07201C4D46
:1030A0000090DFF870801C4E01AB2A7898F8001071
:1030B0003078FFF7A1FF6079FFF76EFC0D27E0B1D4
:1030C0004FF47A70FDF7F2FE01AA52212046FFF775
:1030D000C1FE00972A7898F8001001AB3078FFF70E
:1030E0008BFFA079FFF770FC10B1E06800F02AFABE
:1030F00000F0CAF806B0BDE8F08101AA43212046DD
:10310000FFF7A8FE0548009701AB2A780178E5E7AC
:10311000090000200B000020080000200A00002009
:1031200070B586B0044601AA3C21FFF793FE072044
:10313000009011480F4D114E017801AB2A7830787C
:10314000FFF75AFF6079FFF727FC08B10020E06025
:1031500001AA52212046FFF77DFE0D20009008486D
:1031600001AB2A7801783078FFF746FF00F08CF841
:1031700006B070BD090000200A00002008000020F1
:103180000B0000202DE9F04186B00F460446FFF702
:1031900001FD28282AD90120164EDFF85C806179CC
:1031A0000D255FB1154F3A78521E90404140C8B28C
:1031B0006071FFF7CFFD01AA52210AE0104F3A7863
:1031C000521E90404140C8B26071FFF7C3FD01AA92
:1031D00043212046FFF73EFE009501AB3278397857
:1031E00098F80000FFF708FF00F04EF806B0BDE8C1
:1031F000F081000009000020070000200B000020E3
:103200000A00002070B5FFF7C5FC32281BD900F07A
:103210003BF80020FFF7EEFC00F00F0000F092F901
:10322000094D4FF48054002221462846FEF70BF842
:10323000FFF728FD00F028F821462846BDE8704039
:103240000122FEF700B870BD0008014070B5FFF71D
:10325000A1FC322814D900F017F80A4D4FF480541D
:10326000002221462846FDF7EEFFFFF70BFD00F098
:103270000BF821462846BDE870400122FDF7E3BF68
:1032800070BD00000008014001490020888070479F
:10329000000000200A4601464FF47A730148FEF709
:1032A000ADBF0000A40000202DE9F05FA34CA44DA9
:1032B000E7144FF480764FF4805A4FF400784FF4BF
:1032C000005B4FF48069002970D0012827D00228C4
:1032D00047D003286DD004286AD101223946204600
:1032E000FDF7B1FF6420FDF7E1FD002239462046DD
:1032F000FDF7A9FF6420FDF7D9FD0122042128462E
:10330000FDF7A1FF6420FDF7D1FD0022042128462E
:10331000FDF799FF6420FDF7C9FD012296E0012227
:1033200031462046FDF78FFF6420FDF7BFFD0022E8
:1033300031462046FDF787FF6420FDF7B7FD0122E7
:1033400080212046FDF77FFF6420FDF7AFFD0022BE
:1033500080212046FDF777FF6420FDF7A7FD0122BD
:1033600098E00122464641462046FDF76CFF642066
:10337000FDF79CFD002231462046FDF764FF6420E6
:10338000FDF794FD012211462846FDF75CFF6420FD
:10339000FDF78CFD002201212846FDF754FF642033
:1033A000FDF784FD012299E02846C1E025E000E018
:1033B000AAE001224E4649462046FDF744FF64201C
:1033C000FDF774FD002231462046FDF73CFF6420E6
:1033D000FDF76CFD012202212846FDF734FF642031
:1033E000FDF764FD002202212846FDF72CFF642032
:1033F000FDF75CFD01229103D6E7012829D00228C0
:103400004AD003286CD004287ED10122042128460A
:10341000FDF719FF3220FDF749FD0022042128465F
:10342000FDF711FF0520FDF741FD01223946204639
:10343000FDF709FF3220FDF739FD0022394620460D
:10344000FDF701FF0520FDF731FD00224FF400419B
:10345000AAE7012280212046FDF7F5FE3220FDF784
:1034600025FD002280212046FDF7EDFE0520FDF719
:103470001DFD012231462046FDF7E5FE3220FDF715
:1034800015FD002231462046FDF7DDFE0520FDF743
:103490000DFD0022514687E7012211462846FDF71F
:1034A000D2FE3220FDF702FD002201212846FDF761
:1034B000CAFE0520FDF7FAFC012246464146204699
:1034C000FDF7C1FE3220FDF7F1FC00223146204617
:1034D000FDF7B9FE0520FDF7E9FC0022594663E738
:1034E000012202212E462846FDF7ADFE3220FDF7CF
:1034F000DDFC002202213046FDF7A5FE0520FDF788
:10350000D5FC01224D4600E016E049462046FDF775
:103510009AFE3220FDF7CAFC002229462046FDF71C
:1035200092FE0520FDF7C2FC00224FF48041304698
:10353000BDE8F05FFDF787BEBDE8F09F00080140E1
:10354000000C014038B5124909788900091FC840AC
:103550008DF80000FFF770FB9DF800105FF000048D
:1035600080EA010525FA04F0C00708D09DF80000A4
:10357000E04000F00101601CC0B2FFF795FE641C42
:10358000E4B2042CEED301216846FFF709FB38BDF5
:1035900007000020010202030405060708090A0BC0
:1035A0000C0D0E0F101000000000000000000102C2
:1035B00003040607080900000000010203040000DC
:1035C000E0350008000000201C0000002801000871
:1035D000FC3500081C0000203C08000044010008E5
:1035E00000000000000000000000000001000000DA
:0C35F00010000000000000000024F400A7
:04000005080000ED02
:00000001FF
